{
  "contractName": "UniqueAsset",
  "abi": [
    {
      "inputs": [],
      "stateMutability": "nonpayable",
      "type": "constructor"
    },
    {
      "anonymous": false,
      "inputs": [
        {
          "indexed": true,
          "internalType": "address",
          "name": "owner",
          "type": "address"
        },
        {
          "indexed": true,
          "internalType": "address",
          "name": "approved",
          "type": "address"
        },
        {
          "indexed": true,
          "internalType": "uint256",
          "name": "tokenId",
          "type": "uint256"
        }
      ],
      "name": "Approval",
      "type": "event"
    },
    {
      "anonymous": false,
      "inputs": [
        {
          "indexed": true,
          "internalType": "address",
          "name": "owner",
          "type": "address"
        },
        {
          "indexed": true,
          "internalType": "address",
          "name": "operator",
          "type": "address"
        },
        {
          "indexed": false,
          "internalType": "bool",
          "name": "approved",
          "type": "bool"
        }
      ],
      "name": "ApprovalForAll",
      "type": "event"
    },
    {
      "anonymous": false,
      "inputs": [
        {
          "indexed": true,
          "internalType": "address",
          "name": "from",
          "type": "address"
        },
        {
          "indexed": true,
          "internalType": "address",
          "name": "to",
          "type": "address"
        },
        {
          "indexed": true,
          "internalType": "uint256",
          "name": "tokenId",
          "type": "uint256"
        }
      ],
      "name": "Transfer",
      "type": "event"
    },
    {
      "anonymous": false,
      "inputs": [
        {
          "indexed": false,
          "internalType": "uint256",
          "name": "tokenID",
          "type": "uint256"
        }
      ],
      "name": "newAssetMinted",
      "type": "event"
    },
    {
      "anonymous": false,
      "inputs": [
        {
          "indexed": false,
          "internalType": "uint256",
          "name": "size",
          "type": "uint256"
        }
      ],
      "name": "sendSize",
      "type": "event"
    },
    {
      "inputs": [
        {
          "internalType": "address",
          "name": "to",
          "type": "address"
        },
        {
          "internalType": "uint256",
          "name": "tokenId",
          "type": "uint256"
        }
      ],
      "name": "approve",
      "outputs": [],
      "stateMutability": "nonpayable",
      "type": "function"
    },
    {
      "inputs": [
        {
          "internalType": "address",
          "name": "owner",
          "type": "address"
        }
      ],
      "name": "balanceOf",
      "outputs": [
        {
          "internalType": "uint256",
          "name": "",
          "type": "uint256"
        }
      ],
      "stateMutability": "view",
      "type": "function",
      "constant": true
    },
    {
      "inputs": [
        {
          "internalType": "uint256",
          "name": "tokenId",
          "type": "uint256"
        }
      ],
      "name": "getApproved",
      "outputs": [
        {
          "internalType": "address",
          "name": "",
          "type": "address"
        }
      ],
      "stateMutability": "view",
      "type": "function",
      "constant": true
    },
    {
      "inputs": [
        {
          "internalType": "string",
          "name": "",
          "type": "string"
        }
      ],
      "name": "ipfsHashSet",
      "outputs": [
        {
          "internalType": "uint8",
          "name": "",
          "type": "uint8"
        }
      ],
      "stateMutability": "view",
      "type": "function",
      "constant": true
    },
    {
      "inputs": [
        {
          "internalType": "address",
          "name": "owner",
          "type": "address"
        },
        {
          "internalType": "address",
          "name": "operator",
          "type": "address"
        }
      ],
      "name": "isApprovedForAll",
      "outputs": [
        {
          "internalType": "bool",
          "name": "",
          "type": "bool"
        }
      ],
      "stateMutability": "view",
      "type": "function",
      "constant": true
    },
    {
      "inputs": [],
      "name": "name",
      "outputs": [
        {
          "internalType": "string",
          "name": "",
          "type": "string"
        }
      ],
      "stateMutability": "view",
      "type": "function",
      "constant": true
    },
    {
      "inputs": [
        {
          "internalType": "uint256",
          "name": "tokenId",
          "type": "uint256"
        }
      ],
      "name": "ownerOf",
      "outputs": [
        {
          "internalType": "address",
          "name": "",
          "type": "address"
        }
      ],
      "stateMutability": "view",
      "type": "function",
      "constant": true
    },
    {
      "inputs": [
        {
          "internalType": "address",
          "name": "from",
          "type": "address"
        },
        {
          "internalType": "address",
          "name": "to",
          "type": "address"
        },
        {
          "internalType": "uint256",
          "name": "tokenId",
          "type": "uint256"
        }
      ],
      "name": "safeTransferFrom",
      "outputs": [],
      "stateMutability": "nonpayable",
      "type": "function"
    },
    {
      "inputs": [
        {
          "internalType": "address",
          "name": "from",
          "type": "address"
        },
        {
          "internalType": "address",
          "name": "to",
          "type": "address"
        },
        {
          "internalType": "uint256",
          "name": "tokenId",
          "type": "uint256"
        },
        {
          "internalType": "bytes",
          "name": "_data",
          "type": "bytes"
        }
      ],
      "name": "safeTransferFrom",
      "outputs": [],
      "stateMutability": "nonpayable",
      "type": "function"
    },
    {
      "inputs": [
        {
          "internalType": "address",
          "name": "operator",
          "type": "address"
        },
        {
          "internalType": "bool",
          "name": "approved",
          "type": "bool"
        }
      ],
      "name": "setApprovalForAll",
      "outputs": [],
      "stateMutability": "nonpayable",
      "type": "function"
    },
    {
      "inputs": [
        {
          "internalType": "bytes4",
          "name": "interfaceId",
          "type": "bytes4"
        }
      ],
      "name": "supportsInterface",
      "outputs": [
        {
          "internalType": "bool",
          "name": "",
          "type": "bool"
        }
      ],
      "stateMutability": "view",
      "type": "function",
      "constant": true
    },
    {
      "inputs": [],
      "name": "symbol",
      "outputs": [
        {
          "internalType": "string",
          "name": "",
          "type": "string"
        }
      ],
      "stateMutability": "view",
      "type": "function",
      "constant": true
    },
    {
      "inputs": [],
      "name": "test",
      "outputs": [
        {
          "internalType": "string",
          "name": "",
          "type": "string"
        }
      ],
      "stateMutability": "view",
      "type": "function",
      "constant": true
    },
    {
      "inputs": [
        {
          "internalType": "uint256",
          "name": "",
          "type": "uint256"
        }
      ],
      "name": "tokenIDToMetadata",
      "outputs": [
        {
          "internalType": "string",
          "name": "",
          "type": "string"
        }
      ],
      "stateMutability": "view",
      "type": "function",
      "constant": true
    },
    {
      "inputs": [],
      "name": "tokenIds",
      "outputs": [
        {
          "internalType": "uint256",
          "name": "",
          "type": "uint256"
        }
      ],
      "stateMutability": "view",
      "type": "function",
      "constant": true
    },
    {
      "inputs": [
        {
          "internalType": "uint256",
          "name": "tokenId",
          "type": "uint256"
        }
      ],
      "name": "tokenURI",
      "outputs": [
        {
          "internalType": "string",
          "name": "",
          "type": "string"
        }
      ],
      "stateMutability": "view",
      "type": "function",
      "constant": true
    },
    {
      "inputs": [
        {
          "internalType": "address",
          "name": "from",
          "type": "address"
        },
        {
          "internalType": "address",
          "name": "to",
          "type": "address"
        },
        {
          "internalType": "uint256",
          "name": "tokenId",
          "type": "uint256"
        }
      ],
      "name": "transferFrom",
      "outputs": [],
      "stateMutability": "nonpayable",
      "type": "function"
    },
    {
      "inputs": [
        {
          "internalType": "address",
          "name": "recipient",
          "type": "address"
        },
        {
          "internalType": "string",
          "name": "hash",
          "type": "string"
        },
        {
          "internalType": "string",
          "name": "metadata",
          "type": "string"
        }
      ],
      "name": "mintAsset",
      "outputs": [
        {
          "internalType": "uint256",
          "name": "",
          "type": "uint256"
        }
      ],
      "stateMutability": "nonpayable",
      "type": "function"
    },
    {
      "inputs": [],
      "name": "getSize",
      "outputs": [
        {
          "internalType": "uint256",
          "name": "",
          "type": "uint256"
        }
      ],
      "stateMutability": "view",
      "type": "function",
      "constant": true
    },
    {
      "inputs": [],
      "name": "testFunc",
      "outputs": [],
      "stateMutability": "nonpayable",
      "type": "function"
    },
    {
      "inputs": [],
      "name": "getMapping",
      "outputs": [
        {
          "internalType": "string[]",
          "name": "",
          "type": "string[]"
        }
      ],
      "stateMutability": "view",
      "type": "function",
      "constant": true
    }
  ],
  "bytecode": "0x60806040523480156200001157600080fd5b506040518060400160405280600b81526020017f556e6971756541737365740000000000000000000000000000000000000000008152506040518060400160405280600381526020017f554e4100000000000000000000000000000000000000000000000000000000008152508160009080519060200190620000969291906200010e565b508060019080519060200190620000af9291906200010e565b5050506040518060400160405280600481526020017f746573740000000000000000000000000000000000000000000000000000000081525060099080519060200190620000ff9291906200010e565b50600060068190555062000223565b8280546200011c90620001be565b90600052602060002090601f0160209004810192826200014057600085556200018c565b82601f106200015b57805160ff19168380011785556200018c565b828001600101855582156200018c579182015b828111156200018b5782518255916020019190600101906200016e565b5b5090506200019b91906200019f565b5090565b5b80821115620001ba576000816000905550600101620001a0565b5090565b60006002820490506001821680620001d757607f821691505b60208210811415620001ee57620001ed620001f4565b5b50919050565b7f4e487b7100000000000000000000000000000000000000000000000000000000600052602260045260246000fd5b612f7680620002336000396000f3fe608060405234801561001057600080fd5b50600436106101375760003560e01c806370a08231116100b8578063b88d4fde1161007c578063b88d4fde14610360578063c87b56dd1461037c578063d5e350e3146103ac578063de8fa431146103ca578063e985e9c5146103e8578063f8a8fd6d1461041857610137565b806370a08231146102a8578063714cff56146102d857806395d89b41146102f657806398640c2514610314578063a22cb4651461034457610137565b8063158d7f3b116100ff578063158d7f3b146101e057806323b872dd1461021057806342842e0e1461022c5780636352211e1461024857806363f828551461027857610137565b806301ffc9a71461013c578063037a417c1461016c57806306fdde0314610176578063081812fc14610194578063095ea7b3146101c4575b600080fd5b61015660048036038101906101519190611f8a565b610436565b6040516101639190612495565b60405180910390f35b610174610518565b005b61017e610553565b60405161018b91906124b0565b60405180910390f35b6101ae60048036038101906101a9919061201d565b6105e5565b6040516101bb919061240c565b60405180910390f35b6101de60048036038101906101d99190611f4e565b61066a565b005b6101fa60048036038101906101f59190611fdc565b610782565b60405161020791906126ad565b60405180910390f35b61022a60048036038101906102259190611dc9565b6107b8565b005b61024660048036038101906102419190611dc9565b610818565b005b610262600480360381019061025d919061201d565b610838565b60405161026f919061240c565b60405180910390f35b610292600480360381019061028d9190611ecf565b6108ea565b60405161029f9190612692565b60405180910390f35b6102c260048036038101906102bd9190611d64565b6109f0565b6040516102cf9190612692565b60405180910390f35b6102e0610aa8565b6040516102ed9190612692565b60405180910390f35b6102fe610aae565b60405161030b91906124b0565b60405180910390f35b61032e6004803603810190610329919061201d565b610b40565b60405161033b91906124b0565b60405180910390f35b61035e60048036038101906103599190611e93565b610be0565b005b61037a60048036038101906103759190611e18565b610d61565b005b6103966004803603810190610391919061201d565b610dc3565b6040516103a391906124b0565b60405180910390f35b6103b4610e6a565b6040516103c19190612473565b60405180910390f35b6103d2610fee565b6040516103df9190612692565b60405180910390f35b61040260048036038101906103fd9190611d8d565b610ff8565b60405161040f9190612495565b60405180910390f35b61042061108c565b60405161042d91906124b0565b60405180910390f35b60007f80ac58cd000000000000000000000000000000000000000000000000000000007bffffffffffffffffffffffffffffffffffffffffffffffffffffffff1916827bffffffffffffffffffffffffffffffffffffffffffffffffffffffff1916148061050157507f5b5e139f000000000000000000000000000000000000000000000000000000007bffffffffffffffffffffffffffffffffffffffffffffffffffffffff1916827bffffffffffffffffffffffffffffffffffffffffffffffffffffffff1916145b8061051157506105108261111a565b5b9050919050565b7fc18dd47add60af7798a5a3707f0b826e229954a0a031943a56c8963e374b0de86006546040516105499190612692565b60405180910390a1565b6060600080546105629061295a565b80601f016020809104026020016040519081016040528092919081815260200182805461058e9061295a565b80156105db5780601f106105b0576101008083540402835291602001916105db565b820191906000526020600020905b8154815290600101906020018083116105be57829003601f168201915b5050505050905090565b60006105f082611184565b61062f576040517f08c379a0000000000000000000000000000000000000000000000000000000008152600401610626906125f2565b60405180910390fd5b6004600083815260200190815260200160002060009054906101000a900473ffffffffffffffffffffffffffffffffffffffff169050919050565b600061067582610838565b90508073ffffffffffffffffffffffffffffffffffffffff168373ffffffffffffffffffffffffffffffffffffffff1614156106e6576040517f08c379a00000000000000000000000000000000000000000000000000000000081526004016106dd90612652565b60405180910390fd5b8073ffffffffffffffffffffffffffffffffffffffff166107056111f0565b73ffffffffffffffffffffffffffffffffffffffff16148061073457506107338161072e6111f0565b610ff8565b5b610773576040517f08c379a000000000000000000000000000000000000000000000000000000000815260040161076a90612572565b60405180910390fd5b61077d83836111f8565b505050565b6007818051602081018201805184825260208301602085012081835280955050505050506000915054906101000a900460ff1681565b6107c96107c36111f0565b826112b1565b610808576040517f08c379a00000000000000000000000000000000000000000000000000000000081526004016107ff90612672565b60405180910390fd5b61081383838361138f565b505050565b61083383838360405180602001604052806000815250610d61565b505050565b6000806002600084815260200190815260200160002060009054906101000a900473ffffffffffffffffffffffffffffffffffffffff169050600073ffffffffffffffffffffffffffffffffffffffff168173ffffffffffffffffffffffffffffffffffffffff1614156108e1576040517f08c379a00000000000000000000000000000000000000000000000000000000081526004016108d8906125b2565b60405180910390fd5b80915050919050565b600060016007846040516108fe91906123d1565b908152602001604051809103902060009054906101000a900460ff1660ff16141561092857600080fd5b600160078460405161093a91906123d1565b908152602001604051809103902060006101000a81548160ff021916908360ff1602179055506000600654905061097185826115eb565b82600860008381526020019081526020016000209080519060200190610998929190611b88565b507f01b3b6de743a3ab5b055f34aecfb3f254a8537e758b3f329fd3c50f0c840d5ea816040516109c89190612692565b60405180910390a160016006546109df91906127dc565b600681905550809150509392505050565b60008073ffffffffffffffffffffffffffffffffffffffff168273ffffffffffffffffffffffffffffffffffffffff161415610a61576040517f08c379a0000000000000000000000000000000000000000000000000000000008152600401610a5890612592565b60405180910390fd5b600360008373ffffffffffffffffffffffffffffffffffffffff1673ffffffffffffffffffffffffffffffffffffffff168152602001908152602001600020549050919050565b60065481565b606060018054610abd9061295a565b80601f0160208091040260200160405190810160405280929190818152602001828054610ae99061295a565b8015610b365780601f10610b0b57610100808354040283529160200191610b36565b820191906000526020600020905b815481529060010190602001808311610b1957829003601f168201915b5050505050905090565b60086020528060005260406000206000915090508054610b5f9061295a565b80601f0160208091040260200160405190810160405280929190818152602001828054610b8b9061295a565b8015610bd85780601f10610bad57610100808354040283529160200191610bd8565b820191906000526020600020905b815481529060010190602001808311610bbb57829003601f168201915b505050505081565b610be86111f0565b73ffffffffffffffffffffffffffffffffffffffff168273ffffffffffffffffffffffffffffffffffffffff161415610c56576040517f08c379a0000000000000000000000000000000000000000000000000000000008152600401610c4d90612532565b60405180910390fd5b8060056000610c636111f0565b73ffffffffffffffffffffffffffffffffffffffff1673ffffffffffffffffffffffffffffffffffffffff16815260200190815260200160002060008473ffffffffffffffffffffffffffffffffffffffff1673ffffffffffffffffffffffffffffffffffffffff16815260200190815260200160002060006101000a81548160ff0219169083151502179055508173ffffffffffffffffffffffffffffffffffffffff16610d106111f0565b73ffffffffffffffffffffffffffffffffffffffff167f17307eab39ab6107e8899845ad3d59bd9653f200f220920489ca2b5937696c3183604051610d559190612495565b60405180910390a35050565b610d72610d6c6111f0565b836112b1565b610db1576040517f08c379a0000000000000000000000000000000000000000000000000000000008152600401610da890612672565b60405180910390fd5b610dbd848484846117b9565b50505050565b6060610dce82611184565b610e0d576040517f08c379a0000000000000000000000000000000000000000000000000000000008152600401610e0490612632565b60405180910390fd5b6000610e17611815565b90506000815111610e375760405180602001604052806000815250610e62565b80610e418461182c565b604051602001610e529291906123e8565b6040516020818303038152906040525b915050919050565b6060600060065467ffffffffffffffff811115610eb0577f4e487b7100000000000000000000000000000000000000000000000000000000600052604160045260246000fd5b604051908082528060200260200182016040528015610ee357816020015b6060815260200190600190039081610ece5790505b50905060005b600654811015610fe657600860008281526020019081526020016000208054610f119061295a565b80601f0160208091040260200160405190810160405280929190818152602001828054610f3d9061295a565b8015610f8a5780601f10610f5f57610100808354040283529160200191610f8a565b820191906000526020600020905b815481529060010190602001808311610f6d57829003601f168201915b5050505050828281518110610fc8577f4e487b7100000000000000000000000000000000000000000000000000000000600052603260045260246000fd5b60200260200101819052508080610fde906129bd565b915050610ee9565b508091505090565b6000600654905090565b6000600560008473ffffffffffffffffffffffffffffffffffffffff1673ffffffffffffffffffffffffffffffffffffffff16815260200190815260200160002060008373ffffffffffffffffffffffffffffffffffffffff1673ffffffffffffffffffffffffffffffffffffffff16815260200190815260200160002060009054906101000a900460ff16905092915050565b600980546110999061295a565b80601f01602080910402602001604051908101604052809291908181526020018280546110c59061295a565b80156111125780601f106110e757610100808354040283529160200191611112565b820191906000526020600020905b8154815290600101906020018083116110f557829003601f168201915b505050505081565b60007f01ffc9a7000000000000000000000000000000000000000000000000000000007bffffffffffffffffffffffffffffffffffffffffffffffffffffffff1916827bffffffffffffffffffffffffffffffffffffffffffffffffffffffff1916149050919050565b60008073ffffffffffffffffffffffffffffffffffffffff166002600084815260200190815260200160002060009054906101000a900473ffffffffffffffffffffffffffffffffffffffff1673ffffffffffffffffffffffffffffffffffffffff1614159050919050565b600033905090565b816004600083815260200190815260200160002060006101000a81548173ffffffffffffffffffffffffffffffffffffffff021916908373ffffffffffffffffffffffffffffffffffffffff160217905550808273ffffffffffffffffffffffffffffffffffffffff1661126b83610838565b73ffffffffffffffffffffffffffffffffffffffff167f8c5be1e5ebec7d5bd14f71427d1e84f3dd0314c0f7b2291e5b200ac8c7c3b92560405160405180910390a45050565b60006112bc82611184565b6112fb576040517f08c379a00000000000000000000000000000000000000000000000000000000081526004016112f290612552565b60405180910390fd5b600061130683610838565b90508073ffffffffffffffffffffffffffffffffffffffff168473ffffffffffffffffffffffffffffffffffffffff16148061137557508373ffffffffffffffffffffffffffffffffffffffff1661135d846105e5565b73ffffffffffffffffffffffffffffffffffffffff16145b8061138657506113858185610ff8565b5b91505092915050565b8273ffffffffffffffffffffffffffffffffffffffff166113af82610838565b73ffffffffffffffffffffffffffffffffffffffff1614611405576040517f08c379a00000000000000000000000000000000000000000000000000000000081526004016113fc90612612565b60405180910390fd5b600073ffffffffffffffffffffffffffffffffffffffff168273ffffffffffffffffffffffffffffffffffffffff161415611475576040517f08c379a000000000000000000000000000000000000000000000000000000000815260040161146c90612512565b60405180910390fd5b6114808383836119d9565b61148b6000826111f8565b6001600360008573ffffffffffffffffffffffffffffffffffffffff1673ffffffffffffffffffffffffffffffffffffffff16815260200190815260200160002060008282546114db9190612863565b925050819055506001600360008473ffffffffffffffffffffffffffffffffffffffff1673ffffffffffffffffffffffffffffffffffffffff168152602001908152602001600020600082825461153291906127dc565b92505081905550816002600083815260200190815260200160002060006101000a81548173ffffffffffffffffffffffffffffffffffffffff021916908373ffffffffffffffffffffffffffffffffffffffff160217905550808273ffffffffffffffffffffffffffffffffffffffff168473ffffffffffffffffffffffffffffffffffffffff167fddf252ad1be2c89b69c2b068fc378daa952ba7f163c4a11628f55a4df523b3ef60405160405180910390a4505050565b600073ffffffffffffffffffffffffffffffffffffffff168273ffffffffffffffffffffffffffffffffffffffff16141561165b576040517f08c379a0000000000000000000000000000000000000000000000000000000008152600401611652906125d2565b60405180910390fd5b61166481611184565b156116a4576040517f08c379a000000000000000000000000000000000000000000000000000000000815260040161169b906124f2565b60405180910390fd5b6116b0600083836119d9565b6001600360008473ffffffffffffffffffffffffffffffffffffffff1673ffffffffffffffffffffffffffffffffffffffff168152602001908152602001600020600082825461170091906127dc565b92505081905550816002600083815260200190815260200160002060006101000a81548173ffffffffffffffffffffffffffffffffffffffff021916908373ffffffffffffffffffffffffffffffffffffffff160217905550808273ffffffffffffffffffffffffffffffffffffffff16600073ffffffffffffffffffffffffffffffffffffffff167fddf252ad1be2c89b69c2b068fc378daa952ba7f163c4a11628f55a4df523b3ef60405160405180910390a45050565b6117c484848461138f565b6117d0848484846119de565b61180f576040517f08c379a0000000000000000000000000000000000000000000000000000000008152600401611806906124d2565b60405180910390fd5b50505050565b606060405180602001604052806000815250905090565b60606000821415611874576040518060400160405280600181526020017f300000000000000000000000000000000000000000000000000000000000000081525090506119d4565b600082905060005b600082146118a657808061188f906129bd565b915050600a8261189f9190612832565b915061187c565b60008167ffffffffffffffff8111156118e8577f4e487b7100000000000000000000000000000000000000000000000000000000600052604160045260246000fd5b6040519080825280601f01601f19166020018201604052801561191a5781602001600182028036833780820191505090505b5090505b600085146119cd576001826119339190612863565b9150600a856119429190612a06565b603061194e91906127dc565b60f81b81838151811061198a577f4e487b7100000000000000000000000000000000000000000000000000000000600052603260045260246000fd5b60200101907effffffffffffffffffffffffffffffffffffffffffffffffffffffffffffff1916908160001a905350600a856119c69190612832565b945061191e565b8093505050505b919050565b505050565b60006119ff8473ffffffffffffffffffffffffffffffffffffffff16611b75565b15611b68578373ffffffffffffffffffffffffffffffffffffffff1663150b7a02611a286111f0565b8786866040518563ffffffff1660e01b8152600401611a4a9493929190612427565b602060405180830381600087803b158015611a6457600080fd5b505af1925050508015611a9557506040513d601f19601f82011682018060405250810190611a929190611fb3565b60015b611b18573d8060008114611ac5576040519150601f19603f3d011682016040523d82523d6000602084013e611aca565b606091505b50600081511415611b10576040517f08c379a0000000000000000000000000000000000000000000000000000000008152600401611b07906124d2565b60405180910390fd5b805181602001fd5b63150b7a0260e01b7bffffffffffffffffffffffffffffffffffffffffffffffffffffffff1916817bffffffffffffffffffffffffffffffffffffffffffffffffffffffff191614915050611b6d565b600190505b949350505050565b600080823b905060008111915050919050565b828054611b949061295a565b90600052602060002090601f016020900481019282611bb65760008555611bfd565b82601f10611bcf57805160ff1916838001178555611bfd565b82800160010185558215611bfd579182015b82811115611bfc578251825591602001919060010190611be1565b5b509050611c0a9190611c0e565b5090565b5b80821115611c27576000816000905550600101611c0f565b5090565b6000611c3e611c39846126ed565b6126c8565b905082815260208101848484011115611c5657600080fd5b611c61848285612918565b509392505050565b6000611c7c611c778461271e565b6126c8565b905082815260208101848484011115611c9457600080fd5b611c9f848285612918565b509392505050565b600081359050611cb681612ee4565b92915050565b600081359050611ccb81612efb565b92915050565b600081359050611ce081612f12565b92915050565b600081519050611cf581612f12565b92915050565b600082601f830112611d0c57600080fd5b8135611d1c848260208601611c2b565b91505092915050565b600082601f830112611d3657600080fd5b8135611d46848260208601611c69565b91505092915050565b600081359050611d5e81612f29565b92915050565b600060208284031215611d7657600080fd5b6000611d8484828501611ca7565b91505092915050565b60008060408385031215611da057600080fd5b6000611dae85828601611ca7565b9250506020611dbf85828601611ca7565b9150509250929050565b600080600060608486031215611dde57600080fd5b6000611dec86828701611ca7565b9350506020611dfd86828701611ca7565b9250506040611e0e86828701611d4f565b9150509250925092565b60008060008060808587031215611e2e57600080fd5b6000611e3c87828801611ca7565b9450506020611e4d87828801611ca7565b9350506040611e5e87828801611d4f565b925050606085013567ffffffffffffffff811115611e7b57600080fd5b611e8787828801611cfb565b91505092959194509250565b60008060408385031215611ea657600080fd5b6000611eb485828601611ca7565b9250506020611ec585828601611cbc565b9150509250929050565b600080600060608486031215611ee457600080fd5b6000611ef286828701611ca7565b935050602084013567ffffffffffffffff811115611f0f57600080fd5b611f1b86828701611d25565b925050604084013567ffffffffffffffff811115611f3857600080fd5b611f4486828701611d25565b9150509250925092565b60008060408385031215611f6157600080fd5b6000611f6f85828601611ca7565b9250506020611f8085828601611d4f565b9150509250929050565b600060208284031215611f9c57600080fd5b6000611faa84828501611cd1565b91505092915050565b600060208284031215611fc557600080fd5b6000611fd384828501611ce6565b91505092915050565b600060208284031215611fee57600080fd5b600082013567ffffffffffffffff81111561200857600080fd5b61201484828501611d25565b91505092915050565b60006020828403121561202f57600080fd5b600061203d84828501611d4f565b91505092915050565b60006120528383612126565b905092915050565b61206381612897565b82525050565b60006120748261275f565b61207e818561278d565b9350836020820285016120908561274f565b8060005b858110156120cc57848403895281516120ad8582612046565b94506120b883612780565b925060208a01995050600181019050612094565b50829750879550505050505092915050565b6120e7816128a9565b82525050565b60006120f88261276a565b612102818561279e565b9350612112818560208601612927565b61211b81612af3565b840191505092915050565b600061213182612775565b61213b81856127af565b935061214b818560208601612927565b61215481612af3565b840191505092915050565b600061216a82612775565b61217481856127c0565b9350612184818560208601612927565b61218d81612af3565b840191505092915050565b60006121a382612775565b6121ad81856127d1565b93506121bd818560208601612927565b80840191505092915050565b60006121d66032836127c0565b91506121e182612b04565b604082019050919050565b60006121f9601c836127c0565b915061220482612b53565b602082019050919050565b600061221c6024836127c0565b915061222782612b7c565b604082019050919050565b600061223f6019836127c0565b915061224a82612bcb565b602082019050919050565b6000612262602c836127c0565b915061226d82612bf4565b604082019050919050565b60006122856038836127c0565b915061229082612c43565b604082019050919050565b60006122a8602a836127c0565b91506122b382612c92565b604082019050919050565b60006122cb6029836127c0565b91506122d682612ce1565b604082019050919050565b60006122ee6020836127c0565b91506122f982612d30565b602082019050919050565b6000612311602c836127c0565b915061231c82612d59565b604082019050919050565b60006123346029836127c0565b915061233f82612da8565b604082019050919050565b6000612357602f836127c0565b915061236282612df7565b604082019050919050565b600061237a6021836127c0565b915061238582612e46565b604082019050919050565b600061239d6031836127c0565b91506123a882612e95565b604082019050919050565b6123bc81612901565b82525050565b6123cb8161290b565b82525050565b60006123dd8284612198565b915081905092915050565b60006123f48285612198565b91506124008284612198565b91508190509392505050565b6000602082019050612421600083018461205a565b92915050565b600060808201905061243c600083018761205a565b612449602083018661205a565b61245660408301856123b3565b818103606083015261246881846120ed565b905095945050505050565b6000602082019050818103600083015261248d8184612069565b905092915050565b60006020820190506124aa60008301846120de565b92915050565b600060208201905081810360008301526124ca818461215f565b905092915050565b600060208201905081810360008301526124eb816121c9565b9050919050565b6000602082019050818103600083015261250b816121ec565b9050919050565b6000602082019050818103600083015261252b8161220f565b9050919050565b6000602082019050818103600083015261254b81612232565b9050919050565b6000602082019050818103600083015261256b81612255565b9050919050565b6000602082019050818103600083015261258b81612278565b9050919050565b600060208201905081810360008301526125ab8161229b565b9050919050565b600060208201905081810360008301526125cb816122be565b9050919050565b600060208201905081810360008301526125eb816122e1565b9050919050565b6000602082019050818103600083015261260b81612304565b9050919050565b6000602082019050818103600083015261262b81612327565b9050919050565b6000602082019050818103600083015261264b8161234a565b9050919050565b6000602082019050818103600083015261266b8161236d565b9050919050565b6000602082019050818103600083015261268b81612390565b9050919050565b60006020820190506126a760008301846123b3565b92915050565b60006020820190506126c260008301846123c2565b92915050565b60006126d26126e3565b90506126de828261298c565b919050565b6000604051905090565b600067ffffffffffffffff82111561270857612707612ac4565b5b61271182612af3565b9050602081019050919050565b600067ffffffffffffffff82111561273957612738612ac4565b5b61274282612af3565b9050602081019050919050565b6000819050602082019050919050565b600081519050919050565b600081519050919050565b600081519050919050565b6000602082019050919050565b600082825260208201905092915050565b600082825260208201905092915050565b600082825260208201905092915050565b600082825260208201905092915050565b600081905092915050565b60006127e782612901565b91506127f283612901565b9250827fffffffffffffffffffffffffffffffffffffffffffffffffffffffffffffffff0382111561282757612826612a37565b5b828201905092915050565b600061283d82612901565b915061284883612901565b92508261285857612857612a66565b5b828204905092915050565b600061286e82612901565b915061287983612901565b92508282101561288c5761288b612a37565b5b828203905092915050565b60006128a2826128e1565b9050919050565b60008115159050919050565b60007fffffffff0000000000000000000000000000000000000000000000000000000082169050919050565b600073ffffffffffffffffffffffffffffffffffffffff82169050919050565b6000819050919050565b600060ff82169050919050565b82818337600083830152505050565b60005b8381101561294557808201518184015260208101905061292a565b83811115612954576000848401525b50505050565b6000600282049050600182168061297257607f821691505b6020821081141561298657612985612a95565b5b50919050565b61299582612af3565b810181811067ffffffffffffffff821117156129b4576129b3612ac4565b5b80604052505050565b60006129c882612901565b91507fffffffffffffffffffffffffffffffffffffffffffffffffffffffffffffffff8214156129fb576129fa612a37565b5b600182019050919050565b6000612a1182612901565b9150612a1c83612901565b925082612a2c57612a2b612a66565b5b828206905092915050565b7f4e487b7100000000000000000000000000000000000000000000000000000000600052601160045260246000fd5b7f4e487b7100000000000000000000000000000000000000000000000000000000600052601260045260246000fd5b7f4e487b7100000000000000000000000000000000000000000000000000000000600052602260045260246000fd5b7f4e487b7100000000000000000000000000000000000000000000000000000000600052604160045260246000fd5b6000601f19601f8301169050919050565b7f4552433732313a207472616e7366657220746f206e6f6e20455243373231526560008201527f63656976657220696d706c656d656e7465720000000000000000000000000000602082015250565b7f4552433732313a20746f6b656e20616c7265616479206d696e74656400000000600082015250565b7f4552433732313a207472616e7366657220746f20746865207a65726f2061646460008201527f7265737300000000000000000000000000000000000000000000000000000000602082015250565b7f4552433732313a20617070726f766520746f2063616c6c657200000000000000600082015250565b7f4552433732313a206f70657261746f7220717565727920666f72206e6f6e657860008201527f697374656e7420746f6b656e0000000000000000000000000000000000000000602082015250565b7f4552433732313a20617070726f76652063616c6c6572206973206e6f74206f7760008201527f6e6572206e6f7220617070726f76656420666f7220616c6c0000000000000000602082015250565b7f4552433732313a2062616c616e636520717565727920666f7220746865207a6560008201527f726f206164647265737300000000000000000000000000000000000000000000602082015250565b7f4552433732313a206f776e657220717565727920666f72206e6f6e657869737460008201527f656e7420746f6b656e0000000000000000000000000000000000000000000000602082015250565b7f4552433732313a206d696e7420746f20746865207a65726f2061646472657373600082015250565b7f4552433732313a20617070726f76656420717565727920666f72206e6f6e657860008201527f697374656e7420746f6b656e0000000000000000000000000000000000000000602082015250565b7f4552433732313a207472616e73666572206f6620746f6b656e2074686174206960008201527f73206e6f74206f776e0000000000000000000000000000000000000000000000602082015250565b7f4552433732314d657461646174613a2055524920717565727920666f72206e6f60008201527f6e6578697374656e7420746f6b656e0000000000000000000000000000000000602082015250565b7f4552433732313a20617070726f76616c20746f2063757272656e74206f776e6560008201527f7200000000000000000000000000000000000000000000000000000000000000602082015250565b7f4552433732313a207472616e736665722063616c6c6572206973206e6f74206f60008201527f776e6572206e6f7220617070726f766564000000000000000000000000000000602082015250565b612eed81612897565b8114612ef857600080fd5b50565b612f04816128a9565b8114612f0f57600080fd5b50565b612f1b816128b5565b8114612f2657600080fd5b50565b612f3281612901565b8114612f3d57600080fd5b5056fea26469706673582212202b14bae6c6c1bc98351fc88d0167608ca3daa029bf7e6e4f0f34fe82f0e5aa6464736f6c63430008040033",
  "immutableReferences": {},
  "source": "pragma solidity ^0.8.0;\n\nimport \"@openzeppelin/contracts/token/ERC721/ERC721.sol\";\nimport \"@openzeppelin/contracts/utils/Counters.sol\";\n\ncontract UniqueAsset is ERC721 {\n    uint256 public tokenIds;\n    mapping(string => uint8) public ipfsHashSet;\n    mapping(uint256 => string) public tokenIDToMetadata;\n    string public test;\n\n    event newAssetMinted(uint256 tokenID);\n    event sendSize(uint256 size);\n\n    constructor() public ERC721(\"UniqueAsset\", \"UNA\") {\n        test = \"test\";\n        tokenIds = uint256(0);\n    }\n\n    function mintAsset(address recipient, string memory hash, string memory metadata)\n    public\n    returns (uint256) {\n        require(ipfsHashSet[hash] != 1);\n        ipfsHashSet[hash] = 1;\n\n        uint256 nextTokenId = tokenIds;\n        _mint(recipient, nextTokenId);\n        tokenIDToMetadata[nextTokenId] = metadata;\n\n        emit newAssetMinted(nextTokenId);\n        tokenIds = tokenIds + 1;\n        return nextTokenId;\n    }\n\n    function getSize()\n    public\n    view\n    returns (uint256) {\n        return tokenIds;\n    }\n\n    function testFunc()\n    public {\n        emit sendSize(tokenIds);\n    }\n\n    function getMapping() public view returns (string[] memory) {\n        string[] memory ret = new string[](tokenIds);\n        for (uint i = 0; i < tokenIds; i++) {\n            ret[i] = tokenIDToMetadata[i];\n        }\n        return ret;\n    }\n}\n\n",
  "sourcePath": "/Users/aman/Documents/NFTApp/contracts/UniqueAsset.sol",
  "compiler": {
    "name": "solc",
    "version": "0.8.4+commit.c7e474f2.Emscripten.clang"
  },
  "schemaVersion": "3.3.4",
  "updatedAt": "2021-05-23T01:51:47.871Z",
  "networkType": "ethereum",
  "devdoc": {
    "kind": "dev",
    "methods": {
      "approve(address,uint256)": {
        "details": "See {IERC721-approve}."
      },
      "balanceOf(address)": {
        "details": "See {IERC721-balanceOf}."
      },
      "getApproved(uint256)": {
        "details": "See {IERC721-getApproved}."
      },
      "isApprovedForAll(address,address)": {
        "details": "See {IERC721-isApprovedForAll}."
      },
      "name()": {
        "details": "See {IERC721Metadata-name}."
      },
      "ownerOf(uint256)": {
        "details": "See {IERC721-ownerOf}."
      },
      "safeTransferFrom(address,address,uint256)": {
        "details": "See {IERC721-safeTransferFrom}."
      },
      "safeTransferFrom(address,address,uint256,bytes)": {
        "details": "See {IERC721-safeTransferFrom}."
      },
      "setApprovalForAll(address,bool)": {
        "details": "See {IERC721-setApprovalForAll}."
      },
      "supportsInterface(bytes4)": {
        "details": "See {IERC165-supportsInterface}."
      },
      "symbol()": {
        "details": "See {IERC721Metadata-symbol}."
      },
      "tokenURI(uint256)": {
        "details": "See {IERC721Metadata-tokenURI}."
      },
      "transferFrom(address,address,uint256)": {
        "details": "See {IERC721-transferFrom}."
      }
    },
    "version": 1
  },
  "userdoc": {
    "kind": "user",
    "methods": {},
    "version": 1
  }
}